{
  "contractName": "SolnSquareVerifier",
  "abi": [
    {
      "constant": true,
      "inputs": [
        {
          "name": "interfaceId",
          "type": "bytes4"
        }
      ],
      "name": "supportsInterface",
      "outputs": [
        {
          "name": "",
          "type": "bool"
        }
      ],
      "payable": false,
      "stateMutability": "view",
      "type": "function"
    },
    {
      "constant": true,
      "inputs": [
        {
          "name": "tokenId",
          "type": "uint256"
        }
      ],
      "name": "getApproved",
      "outputs": [
        {
          "name": "",
          "type": "address"
        }
      ],
      "payable": false,
      "stateMutability": "view",
      "type": "function"
    },
    {
      "constant": false,
      "inputs": [
        {
          "name": "to",
          "type": "address"
        },
        {
          "name": "tokenId",
          "type": "uint256"
        }
      ],
      "name": "approve",
      "outputs": [],
      "payable": false,
      "stateMutability": "nonpayable",
      "type": "function"
    },
    {
      "constant": true,
      "inputs": [],
      "name": "getSymbol",
      "outputs": [
        {
          "name": "",
          "type": "string"
        }
      ],
      "payable": false,
      "stateMutability": "view",
      "type": "function"
    },
    {
      "constant": true,
      "inputs": [],
      "name": "getName",
      "outputs": [
        {
          "name": "",
          "type": "string"
        }
      ],
      "payable": false,
      "stateMutability": "view",
      "type": "function"
    },
    {
      "constant": true,
      "inputs": [],
      "name": "totalSupply",
      "outputs": [
        {
          "name": "",
          "type": "uint256"
        }
      ],
      "payable": false,
      "stateMutability": "view",
      "type": "function"
    },
    {
      "constant": false,
      "inputs": [
        {
          "name": "from",
          "type": "address"
        },
        {
          "name": "to",
          "type": "address"
        },
        {
          "name": "tokenId",
          "type": "uint256"
        }
      ],
      "name": "transferFrom",
      "outputs": [],
      "payable": false,
      "stateMutability": "nonpayable",
      "type": "function"
    },
    {
      "constant": false,
      "inputs": [
        {
          "name": "_myid",
          "type": "bytes32"
        },
        {
          "name": "_result",
          "type": "string"
        }
      ],
      "name": "__callback",
      "outputs": [],
      "payable": false,
      "stateMutability": "nonpayable",
      "type": "function"
    },
    {
      "constant": true,
      "inputs": [
        {
          "name": "owner",
          "type": "address"
        },
        {
          "name": "index",
          "type": "uint256"
        }
      ],
      "name": "tokenOfOwnerByIndex",
      "outputs": [
        {
          "name": "",
          "type": "uint256"
        }
      ],
      "payable": false,
      "stateMutability": "view",
      "type": "function"
    },
    {
      "constant": false,
      "inputs": [
        {
          "name": "_myid",
          "type": "bytes32"
        },
        {
          "name": "_result",
          "type": "string"
        },
        {
          "name": "_proof",
          "type": "bytes"
        }
      ],
      "name": "__callback",
      "outputs": [],
      "payable": false,
      "stateMutability": "nonpayable",
      "type": "function"
    },
    {
      "constant": false,
      "inputs": [
        {
          "name": "to",
          "type": "address"
        },
        {
          "name": "tokenId",
          "type": "uint256"
        }
      ],
      "name": "mint",
      "outputs": [
        {
          "name": "",
          "type": "bool"
        }
      ],
      "payable": false,
      "stateMutability": "nonpayable",
      "type": "function"
    },
    {
      "constant": false,
      "inputs": [
        {
          "name": "from",
          "type": "address"
        },
        {
          "name": "to",
          "type": "address"
        },
        {
          "name": "tokenId",
          "type": "uint256"
        }
      ],
      "name": "safeTransferFrom",
      "outputs": [],
      "payable": false,
      "stateMutability": "nonpayable",
      "type": "function"
    },
    {
      "constant": true,
      "inputs": [
        {
          "name": "index",
          "type": "uint256"
        }
      ],
      "name": "tokenByIndex",
      "outputs": [
        {
          "name": "",
          "type": "uint256"
        }
      ],
      "payable": false,
      "stateMutability": "view",
      "type": "function"
    },
    {
      "constant": true,
      "inputs": [
        {
          "name": "tokenId",
          "type": "uint256"
        }
      ],
      "name": "ownerOf",
      "outputs": [
        {
          "name": "",
          "type": "address"
        }
      ],
      "payable": false,
      "stateMutability": "view",
      "type": "function"
    },
    {
      "constant": true,
      "inputs": [
        {
          "name": "owner",
          "type": "address"
        }
      ],
      "name": "balanceOf",
      "outputs": [
        {
          "name": "",
          "type": "uint256"
        }
      ],
      "payable": false,
      "stateMutability": "view",
      "type": "function"
    },
    {
      "constant": true,
      "inputs": [],
      "name": "getOwner",
      "outputs": [
        {
          "name": "",
          "type": "address"
        }
      ],
      "payable": false,
      "stateMutability": "view",
      "type": "function"
    },
    {
      "constant": false,
      "inputs": [
        {
          "name": "to",
          "type": "address"
        },
        {
          "name": "approved",
          "type": "bool"
        }
      ],
      "name": "setApprovalForAll",
      "outputs": [],
      "payable": false,
      "stateMutability": "nonpayable",
      "type": "function"
    },
    {
      "constant": false,
      "inputs": [
        {
          "name": "from",
          "type": "address"
        },
        {
          "name": "to",
          "type": "address"
        },
        {
          "name": "tokenId",
          "type": "uint256"
        },
        {
          "name": "_data",
          "type": "bytes"
        }
      ],
      "name": "safeTransferFrom",
      "outputs": [],
      "payable": false,
      "stateMutability": "nonpayable",
      "type": "function"
    },
    {
      "constant": true,
      "inputs": [],
      "name": "getBaseTokenURI",
      "outputs": [
        {
          "name": "",
          "type": "string"
        }
      ],
      "payable": false,
      "stateMutability": "view",
      "type": "function"
    },
    {
      "constant": true,
      "inputs": [
        {
          "name": "tokenId",
          "type": "uint256"
        }
      ],
      "name": "tokenURI",
      "outputs": [
        {
          "name": "",
          "type": "string"
        }
      ],
      "payable": false,
      "stateMutability": "view",
      "type": "function"
    },
    {
      "constant": false,
      "inputs": [
        {
          "name": "paused",
          "type": "bool"
        }
      ],
      "name": "pauseContract",
      "outputs": [],
      "payable": false,
      "stateMutability": "nonpayable",
      "type": "function"
    },
    {
      "constant": true,
      "inputs": [
        {
          "name": "owner",
          "type": "address"
        },
        {
          "name": "operator",
          "type": "address"
        }
      ],
      "name": "isApprovedForAll",
      "outputs": [
        {
          "name": "",
          "type": "bool"
        }
      ],
      "payable": false,
      "stateMutability": "view",
      "type": "function"
    },
    {
      "constant": false,
      "inputs": [
        {
          "name": "newOwner",
          "type": "address"
        }
      ],
      "name": "transferOwnership",
      "outputs": [],
      "payable": false,
      "stateMutability": "nonpayable",
      "type": "function"
    },
    {
      "inputs": [
        {
          "name": "verifierContract",
          "type": "address"
        }
      ],
      "payable": false,
      "stateMutability": "nonpayable",
      "type": "constructor"
    },
    {
      "anonymous": false,
      "inputs": [
        {
          "indexed": false,
          "name": "solutionKey",
          "type": "bytes32"
        },
        {
          "indexed": false,
          "name": "submittedBy",
          "type": "address"
        }
      ],
      "name": "SolutionAdded",
      "type": "event"
    },
    {
      "anonymous": false,
      "inputs": [
        {
          "indexed": true,
          "name": "from",
          "type": "address"
        },
        {
          "indexed": true,
          "name": "to",
          "type": "address"
        },
        {
          "indexed": true,
          "name": "tokenId",
          "type": "uint256"
        }
      ],
      "name": "Transfer",
      "type": "event"
    },
    {
      "anonymous": false,
      "inputs": [
        {
          "indexed": true,
          "name": "owner",
          "type": "address"
        },
        {
          "indexed": true,
          "name": "approved",
          "type": "address"
        },
        {
          "indexed": true,
          "name": "tokenId",
          "type": "uint256"
        }
      ],
      "name": "Approval",
      "type": "event"
    },
    {
      "anonymous": false,
      "inputs": [
        {
          "indexed": true,
          "name": "owner",
          "type": "address"
        },
        {
          "indexed": true,
          "name": "operator",
          "type": "address"
        },
        {
          "indexed": false,
          "name": "approved",
          "type": "bool"
        }
      ],
      "name": "ApprovalForAll",
      "type": "event"
    },
    {
      "anonymous": false,
      "inputs": [
        {
          "indexed": true,
          "name": "byAddress",
          "type": "address"
        }
      ],
      "name": "Paused",
      "type": "event"
    },
    {
      "anonymous": false,
      "inputs": [
        {
          "indexed": true,
          "name": "byAddress",
          "type": "address"
        }
      ],
      "name": "Unpaused",
      "type": "event"
    },
    {
      "anonymous": false,
      "inputs": [
        {
          "indexed": true,
          "name": "oldOwner",
          "type": "address"
        },
        {
          "indexed": true,
          "name": "newOwner",
          "type": "address"
        }
      ],
      "name": "OwnershipTransfer",
      "type": "event"
    },
    {
      "constant": true,
      "inputs": [],
      "name": "getLengthOfSolutionsArray",
      "outputs": [
        {
          "name": "",
          "type": "uint256"
        }
      ],
      "payable": false,
      "stateMutability": "view",
      "type": "function"
    },
    {
      "constant": false,
      "inputs": [
        {
          "name": "tokenId",
          "type": "uint256"
        },
        {
          "name": "a",
          "type": "uint256[2]"
        },
        {
          "name": "b",
          "type": "uint256[2][2]"
        },
        {
          "name": "c",
          "type": "uint256[2]"
        },
        {
          "name": "input",
          "type": "uint256[2]"
        }
      ],
      "name": "mintCapstone",
      "outputs": [],
      "payable": false,
      "stateMutability": "nonpayable",
      "type": "function"
    }
  ],
  "bytecode": "0x60806040523480156200001157600080fd5b5060405160208062003cb6833981018060405260208110156200003357600080fd5b81019080805190602001909291905050506040518060400160405280600981526020017f43617073746f6e657300000000000000000000000000000000000000000000008152506040518060400160405280600381526020017f43415000000000000000000000000000000000000000000000000000000000008152506040518060600160405280603f815260200162003c77603f91393373ffffffffffffffffffffffffffffffffffffffff16600073ffffffffffffffffffffffffffffffffffffffff167f22500af037c600dd7b720644ab6e358635085601d9ac508ad83eb2d6b2d729ca60405160405180910390a3336000806101000a81548173ffffffffffffffffffffffffffffffffffffffff021916908373ffffffffffffffffffffffffffffffffffffffff16021790555060008060146101000a81548160ff021916908315150217905550620001976301ffc9a760e01b6200027560201b60201c565b620001af6380ac58cd60e01b6200027560201b60201c565b620001c763780e9d6360e01b6200027560201b60201c565b82600f9080519060200190620001df9291906200037e565b508160109080519060200190620001f89291906200037e565b508060119080519060200190620002119291906200037e565b506200022a635b5e139f60e01b6200027560201b60201c565b50505080601560006101000a81548173ffffffffffffffffffffffffffffffffffffffff021916908373ffffffffffffffffffffffffffffffffffffffff160217905550506200042d565b63ffffffff60e01b817bffffffffffffffffffffffffffffffffffffffffffffffffffffffff1916141562000312576040517f08c379a00000000000000000000000000000000000000000000000000000000081526004018080602001828103825260198152602001807f4d7573742062652076616c696420696e7465726661636549640000000000000081525060200191505060405180910390fd5b6001806000837bffffffffffffffffffffffffffffffffffffffffffffffffffffffff19167bffffffffffffffffffffffffffffffffffffffffffffffffffffffff1916815260200190815260200160002060006101000a81548160ff02191690831515021790555050565b828054600181600116156101000203166002900490600052602060002090601f016020900481019282601f10620003c157805160ff1916838001178555620003f2565b82800160010185558215620003f2579182015b82811115620003f1578251825591602001919060010190620003d4565b5b50905062000401919062000405565b5090565b6200042a91905b80821115620004265760008160009055506001016200040c565b5090565b90565b61383a806200043d6000396000f3fe608060405234801561001057600080fd5b50600436106101735760003560e01c80634f6ccce7116100de578063b283047811610097578063c87b56dd11610071578063c87b56dd14610c35578063e272b89214610cdc578063e985e9c514610d0c578063f2fde38b14610d8857610173565b8063b283047814610a8f578063b88d4fde14610aad578063bdc32be014610bb257610173565b80634f6ccce7146107825780636352211e146107c457806370a0823114610832578063893d20e81461088a578063a22cb465146108d4578063a6930b251461092457610173565b806323b872dd1161013057806323b872dd146103bd57806327dc297e1461042b5780632f745c59146104f057806338bbfa501461055257806340c10f19146106ae57806342842e0e1461071457610173565b806301ffc9a714610178578063081812fc146101dd578063095ea7b31461024b578063150704011461029957806317d7de7c1461031c57806318160ddd1461039f575b600080fd5b6101c36004803603602081101561018e57600080fd5b8101908080357bffffffffffffffffffffffffffffffffffffffffffffffffffffffff19169060200190929190505050610dcc565b604051808215151515815260200191505060405180910390f35b610209600480360360208110156101f357600080fd5b8101908080359060200190929190505050610e34565b604051808273ffffffffffffffffffffffffffffffffffffffff1673ffffffffffffffffffffffffffffffffffffffff16815260200191505060405180910390f35b6102976004803603604081101561026157600080fd5b81019080803573ffffffffffffffffffffffffffffffffffffffff16906020019092919080359060200190929190505050610e71565b005b6102a1611051565b6040518080602001828103825283818151815260200191508051906020019080838360005b838110156102e15780820151818401526020810190506102c6565b50505050905090810190601f16801561030e5780820380516001836020036101000a031916815260200191505b509250505060405180910390f35b6103246110f3565b6040518080602001828103825283818151815260200191508051906020019080838360005b83811015610364578082015181840152602081019050610349565b50505050905090810190601f1680156103915780820380516001836020036101000a031916815260200191505b509250505060405180910390f35b6103a7611195565b6040518082815260200191505060405180910390f35b610429600480360360608110156103d357600080fd5b81019080803573ffffffffffffffffffffffffffffffffffffffff169060200190929190803573ffffffffffffffffffffffffffffffffffffffff169060200190929190803590602001909291905050506111a2565b005b6104ee6004803603604081101561044157600080fd5b81019080803590602001909291908035906020019064010000000081111561046857600080fd5b82018360208201111561047a57600080fd5b8035906020019184600183028401116401000000008311171561049c57600080fd5b91908080601f016020809104026020016040519081016040528093929190818152602001838380828437600081840152601f19601f82011690508083019250505050505050919291929050505061122e565b005b61053c6004803603604081101561050657600080fd5b81019080803573ffffffffffffffffffffffffffffffffffffffff16906020019092919080359060200190929190505050611271565b6040518082815260200191505060405180910390f35b6106ac6004803603606081101561056857600080fd5b81019080803590602001909291908035906020019064010000000081111561058f57600080fd5b8201836020820111156105a157600080fd5b803590602001918460018302840111640100000000831117156105c357600080fd5b91908080601f016020809104026020016040519081016040528093929190818152602001838380828437600081840152601f19601f8201169050808301925050505050505091929192908035906020019064010000000081111561062657600080fd5b82018360208201111561063857600080fd5b8035906020019184600183028401116401000000008311171561065a57600080fd5b91908080601f016020809104026020016040519081016040528093929190818152602001838380828437600081840152601f19601f82011690508083019250505050505050919291929050505061134d565b005b6106fa600480360360408110156106c457600080fd5b81019080803573ffffffffffffffffffffffffffffffffffffffff16906020019092919080359060200190929190505050611352565b604051808215151515815260200191505060405180910390f35b6107806004803603606081101561072a57600080fd5b81019080803573ffffffffffffffffffffffffffffffffffffffff169060200190929190803573ffffffffffffffffffffffffffffffffffffffff16906020019092919080359060200190929190505050611416565b005b6107ae6004803603602081101561079857600080fd5b8101908080359060200190929190505050611436565b6040518082815260200191505060405180910390f35b6107f0600480360360208110156107da57600080fd5b81019080803590602001909291905050506114d3565b604051808273ffffffffffffffffffffffffffffffffffffffff1673ffffffffffffffffffffffffffffffffffffffff16815260200191505060405180910390f35b6108746004803603602081101561084857600080fd5b81019080803573ffffffffffffffffffffffffffffffffffffffff169060200190929190505050611510565b6040518082815260200191505060405180910390f35b610892611560565b604051808273ffffffffffffffffffffffffffffffffffffffff1673ffffffffffffffffffffffffffffffffffffffff16815260200191505060405180910390f35b610922600480360360408110156108ea57600080fd5b81019080803573ffffffffffffffffffffffffffffffffffffffff169060200190929190803515159060200190929190505050611589565b005b610a8d600480360361016081101561093b57600080fd5b810190808035906020019092919080604001906002806020026040519081016040528092919082600260200280828437600081840152601f19601f82011690508083019250505050505091929192908060800190600280602002604051908101604052809291906000905b828210156109fa578382604002016002806020026040519081016040528092919082600260200280828437600081840152601f19601f820116905080830192505050505050815260200190600101906109a6565b50505050919291929080604001906002806020026040519081016040528092919082600260200280828437600081840152601f19601f820116905080830192505050505050919291929080604001906002806020026040519081016040528092919082600260200280828437600081840152601f19601f820116905080830192505050505050919291929050505061170f565b005b610a9761199b565b6040518082815260200191505060405180910390f35b610bb060048036036080811015610ac357600080fd5b81019080803573ffffffffffffffffffffffffffffffffffffffff169060200190929190803573ffffffffffffffffffffffffffffffffffffffff1690602001909291908035906020019092919080359060200190640100000000811115610b2a57600080fd5b820183602082011115610b3c57600080fd5b80359060200191846001830284011164010000000083111715610b5e57600080fd5b91908080601f016020809104026020016040519081016040528093929190818152602001838380828437600081840152601f19601f8201169050808301925050505050505091929192905050506119a8565b005b610bba611a37565b6040518080602001828103825283818151815260200191508051906020019080838360005b83811015610bfa578082015181840152602081019050610bdf565b50505050905090810190601f168015610c275780820380516001836020036101000a031916815260200191505b509250505060405180910390f35b610c6160048036036020811015610c4b57600080fd5b8101908080359060200190929190505050611ad9565b6040518080602001828103825283818151815260200191508051906020019080838360005b83811015610ca1578082015181840152602081019050610c86565b50505050905090810190601f168015610cce5780820380516001836020036101000a031916815260200191505b509250505060405180910390f35b610d0a60048036036020811015610cf257600080fd5b81019080803515159060200190929190505050611c09565b005b610d6e60048036036040811015610d2257600080fd5b81019080803573ffffffffffffffffffffffffffffffffffffffff169060200190929190803573ffffffffffffffffffffffffffffffffffffffff169060200190929190505050611d64565b604051808215151515815260200191505060405180910390f35b610dca60048036036020811015610d9e57600080fd5b81019080803573ffffffffffffffffffffffffffffffffffffffff169060200190929190505050611df8565b005b600060016000837bffffffffffffffffffffffffffffffffffffffffffffffffffffffff19167bffffffffffffffffffffffffffffffffffffffffffffffffffffffff1916815260200190815260200160002060009054906101000a900460ff169050919050565b60006003600083815260200190815260200160002060009054906101000a900473ffffffffffffffffffffffffffffffffffffffff169050919050565b6000610e7c826114d3565b90508073ffffffffffffffffffffffffffffffffffffffff168373ffffffffffffffffffffffffffffffffffffffff161415610f03576040517f08c379a00000000000000000000000000000000000000000000000000000000081526004018080602001828103825260388152602001806137d76038913960400191505060405180910390fd5b610f0b611560565b73ffffffffffffffffffffffffffffffffffffffff163373ffffffffffffffffffffffffffffffffffffffff161480610f4a5750610f498133611d64565b5b610f9f576040517f08c379a00000000000000000000000000000000000000000000000000000000081526004018080602001828103825260248152602001806137696024913960400191505060405180910390fd5b826003600084815260200190815260200160002060006101000a81548173ffffffffffffffffffffffffffffffffffffffff021916908373ffffffffffffffffffffffffffffffffffffffff160217905550818373ffffffffffffffffffffffffffffffffffffffff168273ffffffffffffffffffffffffffffffffffffffff167f8c5be1e5ebec7d5bd14f71427d1e84f3dd0314c0f7b2291e5b200ac8c7c3b92560405160405180910390a4505050565b606060108054600181600116156101000203166002900480601f0160208091040260200160405190810160405280929190818152602001828054600181600116156101000203166002900480156110e95780601f106110be576101008083540402835291602001916110e9565b820191906000526020600020905b8154815290600101906020018083116110cc57829003601f168201915b5050505050905090565b6060600f8054600181600116156101000203166002900480601f01602080910402602001604051908101604052809291908181526020018280546001816001161561010002031660029004801561118b5780601f106111605761010080835404028352916020019161118b565b820191906000526020600020905b81548152906001019060200180831161116e57829003601f168201915b5050505050905090565b6000600880549050905090565b6111ac3382611ffe565b61121e576040517f08c379a000000000000000000000000000000000000000000000000000000000815260040180806020018281038252601b8152602001807f4e6f7420617574686f72697a656420746f207472616e736665722e000000000081525060200191505060405180910390fd5b611229838383612093565b505050565b61126d828260006040519080825280601f01601f1916602001820160405280156112675781602001600182028038833980820191505090505b5061134d565b5050565b600061127c83611510565b82106112f0576040517f08c379a00000000000000000000000000000000000000000000000000000000081526004018080602001828103825260138152602001807f496e646578206f7574206f6620626f756e64730000000000000000000000000081525060200191505060405180910390fd5b600660008473ffffffffffffffffffffffffffffffffffffffff1673ffffffffffffffffffffffffffffffffffffffff168152602001908152602001600020828154811061133a57fe5b9060005260206000200154905092915050565b505050565b60008060009054906101000a900473ffffffffffffffffffffffffffffffffffffffff1673ffffffffffffffffffffffffffffffffffffffff163373ffffffffffffffffffffffffffffffffffffffff16146113f9576040517f08c379a00000000000000000000000000000000000000000000000000000000081526004018080602001828103825260268152602001806137b16026913960400191505060405180910390fd5b61140383836120b7565b61140c826120d8565b6001905092915050565b611431838383604051806020016040528060008152506119a8565b505050565b6000611440611195565b82106114b4576040517f08c379a00000000000000000000000000000000000000000000000000000000081526004018080602001828103825260138152602001807f496e646578206f7574206f6620626f756e64730000000000000000000000000081525060200191505060405180910390fd5b600882815481106114c157fe5b90600052602060002001549050919050565b60006002600083815260200190815260200160002060009054906101000a900473ffffffffffffffffffffffffffffffffffffffff169050919050565b6000611559600460008473ffffffffffffffffffffffffffffffffffffffff1673ffffffffffffffffffffffffffffffffffffffff168152602001908152602001600020612229565b9050919050565b60008060009054906101000a900473ffffffffffffffffffffffffffffffffffffffff16905090565b3373ffffffffffffffffffffffffffffffffffffffff168273ffffffffffffffffffffffffffffffffffffffff16141561160e576040517f08c379a000000000000000000000000000000000000000000000000000000000815260040180806020018281038252602c81526020018061373d602c913960400191505060405180910390fd5b80600560003373ffffffffffffffffffffffffffffffffffffffff1673ffffffffffffffffffffffffffffffffffffffff16815260200190815260200160002060008473ffffffffffffffffffffffffffffffffffffffff1673ffffffffffffffffffffffffffffffffffffffff16815260200190815260200160002060006101000a81548160ff0219169083151502179055508173ffffffffffffffffffffffffffffffffffffffff163373ffffffffffffffffffffffffffffffffffffffff167f17307eab39ab6107e8899845ad3d59bd9653f200f220920489ca2b5937696c3183604051808215151515815260200191505060405180910390a35050565b600061171d85858585612237565b90506014600082815260200190815260200160002060009054906101000a900460ff1615611796576040517f08c379a00000000000000000000000000000000000000000000000000000000081526004018080602001828103825260278152602001806137166027913960400191505060405180910390fd5b6000601560009054906101000a900473ffffffffffffffffffffffffffffffffffffffff1673ffffffffffffffffffffffffffffffffffffffff1663621e9ec0878787876040518563ffffffff1660e01b81526004018085600260200280838360005b838110156118145780820151818401526020810190506117f9565b505050509050018460026000925b818410156118685782846020020151600260200280838360005b8381101561185757808201518184015260208101905061183c565b505050509050019260010192611822565b9250505083600260200280838360005b83811015611893578082015181840152602081019050611878565b5050505090500182600260200280838360005b838110156118c15780820151818401526020810190506118a6565b50505050905001945050505050602060405180830381600087803b1580156118e857600080fd5b505af11580156118fc573d6000803e3d6000fd5b505050506040513d602081101561191257600080fd5b810190808051906020019092919050505090508061197b576040517f08c379a000000000000000000000000000000000000000000000000000000000815260040180806020018281038252602481526020018061378d6024913960400191505060405180910390fd5b61198786868686612345565b6119913388611352565b5050505050505050565b6000601380549050905090565b6119b38484846111a2565b6119bf84848484612544565b611a31576040517f08c379a000000000000000000000000000000000000000000000000000000000815260040180806020018281038252600c8152602001807f436865636b206661696c6564000000000000000000000000000000000000000081525060200191505060405180910390fd5b50505050565b606060118054600181600116156101000203166002900480601f016020809104026020016040519081016040528092919081815260200182805460018160011615610100020316600290048015611acf5780601f10611aa457610100808354040283529160200191611acf565b820191906000526020600020905b815481529060010190602001808311611ab257829003601f168201915b5050505050905090565b6060611ae48261272d565b611b56576040517f08c379a00000000000000000000000000000000000000000000000000000000081526004018080602001828103825260158152602001807f546f6b656e20646f6573206e6f742065786973742e000000000000000000000081525060200191505060405180910390fd5b601260008381526020019081526020016000208054600181600116156101000203166002900480601f016020809104026020016040519081016040528092919081815260200182805460018160011615610100020316600290048015611bfd5780601f10611bd257610100808354040283529160200191611bfd565b820191906000526020600020905b815481529060010190602001808311611be057829003601f168201915b50505050509050919050565b6000809054906101000a900473ffffffffffffffffffffffffffffffffffffffff1673ffffffffffffffffffffffffffffffffffffffff163373ffffffffffffffffffffffffffffffffffffffff1614611cae576040517f08c379a00000000000000000000000000000000000000000000000000000000081526004018080602001828103825260268152602001806137b16026913960400191505060405180910390fd5b600115158115151415611d03573373ffffffffffffffffffffffffffffffffffffffff167f62e78cea01bee320cd4e420270b5ea74000d11b0c9f74754ebdbfc544b05a25860405160405180910390a2611d47565b3373ffffffffffffffffffffffffffffffffffffffff167f5db9ee0a495bf2e6ff9c91a7834c1ba4fdd244a5e8aa4e537bd38aeae4b073aa60405160405180910390a25b80600060146101000a81548160ff02191690831515021790555050565b6000600560008473ffffffffffffffffffffffffffffffffffffffff1673ffffffffffffffffffffffffffffffffffffffff16815260200190815260200160002060008373ffffffffffffffffffffffffffffffffffffffff1673ffffffffffffffffffffffffffffffffffffffff16815260200190815260200160002060009054906101000a900460ff16905092915050565b6000809054906101000a900473ffffffffffffffffffffffffffffffffffffffff1673ffffffffffffffffffffffffffffffffffffffff163373ffffffffffffffffffffffffffffffffffffffff1614611e9d576040517f08c379a00000000000000000000000000000000000000000000000000000000081526004018080602001828103825260268152602001806137b16026913960400191505060405180910390fd5b600073ffffffffffffffffffffffffffffffffffffffff168173ffffffffffffffffffffffffffffffffffffffff161415611f40576040517f08c379a00000000000000000000000000000000000000000000000000000000081526004018080602001828103825260148152602001807f4e6f7420612076616c696420616464726573732e00000000000000000000000081525060200191505060405180910390fd5b8073ffffffffffffffffffffffffffffffffffffffff166000809054906101000a900473ffffffffffffffffffffffffffffffffffffffff1673ffffffffffffffffffffffffffffffffffffffff167f22500af037c600dd7b720644ab6e358635085601d9ac508ad83eb2d6b2d729ca60405160405180910390a3806000806101000a81548173ffffffffffffffffffffffffffffffffffffffff021916908373ffffffffffffffffffffffffffffffffffffffff16021790555050565b60008061200a836114d3565b90508073ffffffffffffffffffffffffffffffffffffffff168473ffffffffffffffffffffffffffffffffffffffff16148061207957508373ffffffffffffffffffffffffffffffffffffffff1661206184610e34565b73ffffffffffffffffffffffffffffffffffffffff16145b8061208a57506120898185611d64565b5b91505092915050565b61209e83838361279f565b6120a88382612a34565b6120b28282612bd2565b505050565b6120c18282612c99565b6120cb8282612bd2565b6120d481612eb1565b5050565b6120e18161272d565b612153576040517f08c379a00000000000000000000000000000000000000000000000000000000081526004018080602001828103825260158152602001807f546f6b656e20646f6573206e6f742065786973742e000000000000000000000081525060200191505060405180910390fd5b6121ff60118054600181600116156101000203166002900480601f0160208091040260200160405190810160405280929190818152602001828054600181600116156101000203166002900480156121ec5780601f106121c1576101008083540402835291602001916121ec565b820191906000526020600020905b8154815290600101906020018083116121cf57829003601f168201915b50505050506121fa83612efd565b61302a565b6012600083815260200190815260200160002090805190602001906122259291906134c3565b5050565b600081600001549050919050565b6000848484846040516020018085600260200280838360005b8381101561226b578082015181840152602081019050612250565b505050509050018460026000925b818410156122bf5782846020020151600260200280838360005b838110156122ae578082015181840152602081019050612293565b505050509050019260010192612279565b9250505083600260200280838360005b838110156122ea5780820151818401526020810190506122cf565b5050505090500182600260200280838360005b838110156123185780820151818401526020810190506122fd565b50505050905001945050505050604051602081830303815290604052805190602001209050949350505050565b61234d613543565b848160000181905250838160200181905250828160400181905250818160600181905250600061237f86868686612237565b905080826080018181525050338260a0019073ffffffffffffffffffffffffffffffffffffffff16908173ffffffffffffffffffffffffffffffffffffffff168152505060016014600083815260200190815260200160002060006101000a81548160ff0219169083151502179055506013829080600181540180825580915050906001820390600052602060002090600c0201600090919290919091506000820151816000019060026124349291906135ab565b5060208201518160020190600261244c9291906135eb565b506040820151816006019060026124649291906135ab565b5060608201518160080190600261247c9291906135ab565b50608082015181600a015560a082015181600b0160006101000a81548173ffffffffffffffffffffffffffffffffffffffff021916908373ffffffffffffffffffffffffffffffffffffffff1602179055505050507f01d5f9f5a890e5385b4f1d07d3c8c1f739f82bb433ed461d4551b7af3edc63408133604051808381526020018273ffffffffffffffffffffffffffffffffffffffff1673ffffffffffffffffffffffffffffffffffffffff1681526020019250505060405180910390a1505050505050565b60006125658473ffffffffffffffffffffffffffffffffffffffff1661306e565b6125725760019050612725565b60008473ffffffffffffffffffffffffffffffffffffffff1663150b7a02338887876040518563ffffffff1660e01b8152600401808573ffffffffffffffffffffffffffffffffffffffff1673ffffffffffffffffffffffffffffffffffffffff1681526020018473ffffffffffffffffffffffffffffffffffffffff1673ffffffffffffffffffffffffffffffffffffffff16815260200183815260200180602001828103825283818151815260200191508051906020019080838360005b8381101561264d578082015181840152602081019050612632565b50505050905090810190601f16801561267a5780820380516001836020036101000a031916815260200191505b5095505050505050602060405180830381600087803b15801561269c57600080fd5b505af11580156126b0573d6000803e3d6000fd5b505050506040513d60208110156126c657600080fd5b8101908080519060200190929190505050905063150b7a0260e01b7bffffffffffffffffffffffffffffffffffffffffffffffffffffffff1916817bffffffffffffffffffffffffffffffffffffffffffffffffffffffff1916149150505b949350505050565b6000806002600084815260200190815260200160002060009054906101000a900473ffffffffffffffffffffffffffffffffffffffff169050600073ffffffffffffffffffffffffffffffffffffffff168173ffffffffffffffffffffffffffffffffffffffff161415915050919050565b6127a8816114d3565b73ffffffffffffffffffffffffffffffffffffffff168373ffffffffffffffffffffffffffffffffffffffff1614612848576040517f08c379a00000000000000000000000000000000000000000000000000000000081526004018080602001828103825260148152602001807f4e6f742074686520746f6b656e206f776e65722e00000000000000000000000081525060200191505060405180910390fd5b600073ffffffffffffffffffffffffffffffffffffffff168273ffffffffffffffffffffffffffffffffffffffff1614156128eb576040517f08c379a00000000000000000000000000000000000000000000000000000000081526004018080602001828103825260148152602001807f4e6f7420612076616c696420616464726573732e00000000000000000000000081525060200191505060405180910390fd5b6128f481613081565b61293b600460008573ffffffffffffffffffffffffffffffffffffffff1673ffffffffffffffffffffffffffffffffffffffff16815260200190815260200160002061313f565b612982600460008473ffffffffffffffffffffffffffffffffffffffff1673ffffffffffffffffffffffffffffffffffffffff168152602001908152602001600020613162565b816002600083815260200190815260200160002060006101000a81548173ffffffffffffffffffffffffffffffffffffffff021916908373ffffffffffffffffffffffffffffffffffffffff160217905550808273ffffffffffffffffffffffffffffffffffffffff168473ffffffffffffffffffffffffffffffffffffffff167fddf252ad1be2c89b69c2b068fc378daa952ba7f163c4a11628f55a4df523b3ef60405160405180910390a4505050565b6000612a8c6001600660008673ffffffffffffffffffffffffffffffffffffffff1673ffffffffffffffffffffffffffffffffffffffff1681526020019081526020016000208054905061317890919063ffffffff16565b9050600060076000848152602001908152602001600020549050818114612b79576000600660008673ffffffffffffffffffffffffffffffffffffffff1673ffffffffffffffffffffffffffffffffffffffff1681526020019081526020016000208381548110612af957fe5b9060005260206000200154905080600660008773ffffffffffffffffffffffffffffffffffffffff1673ffffffffffffffffffffffffffffffffffffffff1681526020019081526020016000208381548110612b5157fe5b9060005260206000200181905550816007600083815260200190815260200160002081905550505b600660008573ffffffffffffffffffffffffffffffffffffffff1673ffffffffffffffffffffffffffffffffffffffff168152602001908152602001600020805480919060019003612bcb919061363b565b5050505050565b600660008373ffffffffffffffffffffffffffffffffffffffff1673ffffffffffffffffffffffffffffffffffffffff168152602001908152602001600020805490506007600083815260200190815260200160002081905550600660008373ffffffffffffffffffffffffffffffffffffffff1673ffffffffffffffffffffffffffffffffffffffff1681526020019081526020016000208190806001815401808255809150509060018203906000526020600020016000909192909190915055505050565b612ca28161272d565b15612d15576040517f08c379a00000000000000000000000000000000000000000000000000000000081526004018080602001828103825260158152602001807f546f6b656e20616c7265616479206578697374732e000000000000000000000081525060200191505060405180910390fd5b600073ffffffffffffffffffffffffffffffffffffffff168273ffffffffffffffffffffffffffffffffffffffff161415612db8576040517f08c379a00000000000000000000000000000000000000000000000000000000081526004018080602001828103825260148152602001807f4e6f7420612076616c696420616464726573732e00000000000000000000000081525060200191505060405180910390fd5b816002600083815260200190815260200160002060006101000a81548173ffffffffffffffffffffffffffffffffffffffff021916908373ffffffffffffffffffffffffffffffffffffffff160217905550612e51600460008473ffffffffffffffffffffffffffffffffffffffff1673ffffffffffffffffffffffffffffffffffffffff168152602001908152602001600020613162565b808273ffffffffffffffffffffffffffffffffffffffff16600073ffffffffffffffffffffffffffffffffffffffff167fddf252ad1be2c89b69c2b068fc378daa952ba7f163c4a11628f55a4df523b3ef60405160405180910390a45050565b6008805490506009600083815260200190815260200160002081905550600881908060018154018082558091505090600182039060005260206000200160009091929091909150555050565b60606000821415612f45576040518060400160405280600181526020017f30000000000000000000000000000000000000000000000000000000000000008152509050613025565b600082905060005b60008214612f6f578080600101915050600a8281612f6757fe5b049150612f4d565b6060816040519080825280601f01601f191660200182016040528015612fa45781602001600182028038833980820191505090505b50905060006001830390505b6000861461301d57600a8681612fc257fe5b0660300160f81b82828060019003935081518110612fdc57fe5b60200101907effffffffffffffffffffffffffffffffffffffffffffffffffffffffffffff1916908160001a905350600a868161301557fe5b049550612fb0565b819450505050505b919050565b60606130668383604051806020016040528060008152506040518060200160405280600081525060405180602001604052806000815250613201565b905092915050565b600080823b905060008111915050919050565b600073ffffffffffffffffffffffffffffffffffffffff166003600083815260200190815260200160002060009054906101000a900473ffffffffffffffffffffffffffffffffffffffff1673ffffffffffffffffffffffffffffffffffffffff161461313c5760006003600083815260200190815260200160002060006101000a81548173ffffffffffffffffffffffffffffffffffffffff021916908373ffffffffffffffffffffffffffffffffffffffff1602179055505b50565b6131576001826000015461317890919063ffffffff16565b816000018190555050565b6001816000016000828254019250508190555050565b6000828211156131f0576040517f08c379a000000000000000000000000000000000000000000000000000000000815260040180806020018281038252601e8152602001807f536166654d6174683a207375627472616374696f6e206f766572666c6f77000081525060200191505060405180910390fd5b600082840390508091505092915050565b6060808690506060869050606086905060608690506060869050606081518351855187518951010101016040519080825280601f01601f19166020018201604052801561325d5781602001600182028038833980820191505090505b509050606081905060008090506000809050600090505b88518110156132e25788818151811061328957fe5b602001015160f81c60f81b8383806001019450815181106132a657fe5b60200101907effffffffffffffffffffffffffffffffffffffffffffffffffffffffffffff1916908160001a9053508080600101915050613274565b600090505b8751811015613355578781815181106132fc57fe5b602001015160f81c60f81b83838060010194508151811061331957fe5b60200101907effffffffffffffffffffffffffffffffffffffffffffffffffffffffffffff1916908160001a90535080806001019150506132e7565b600090505b86518110156133c85786818151811061336f57fe5b602001015160f81c60f81b83838060010194508151811061338c57fe5b60200101907effffffffffffffffffffffffffffffffffffffffffffffffffffffffffffff1916908160001a905350808060010191505061335a565b600090505b855181101561343b578581815181106133e257fe5b602001015160f81c60f81b8383806001019450815181106133ff57fe5b60200101907effffffffffffffffffffffffffffffffffffffffffffffffffffffffffffff1916908160001a90535080806001019150506133cd565b600090505b84518110156134ae5784818151811061345557fe5b602001015160f81c60f81b83838060010194508151811061347257fe5b60200101907effffffffffffffffffffffffffffffffffffffffffffffffffffffffffffff1916908160001a9053508080600101915050613440565b82995050505050505050505095945050505050565b828054600181600116156101000203166002900490600052602060002090601f016020900481019282601f1061350457805160ff1916838001178555613532565b82800160010185558215613532579182015b82811115613531578251825591602001919060010190613516565b5b50905061353f9190613667565b5090565b60405180610180016040528061355761368c565b81526020016135646136ae565b815260200161357161368c565b815260200161357e61368c565b815260200160008019168152602001600073ffffffffffffffffffffffffffffffffffffffff1681525090565b82600281019282156135da579160200282015b828111156135d95782518255916020019190600101906135be565b5b5090506135e79190613667565b5090565b8260028002810192821561362a579160200282015b82811115613629578251829060026136199291906135ab565b5091602001919060020190613600565b5b50905061363791906136db565b5090565b815481835581811115613662578183600052602060002091820191016136619190613667565b5b505050565b61368991905b8082111561368557600081600090555060010161366d565b5090565b90565b6040518060400160405280600290602082028038833980820191505090505090565b60405180608001604052806002905b6136c561368c565b8152602001906001900390816136bd5790505090565b61370491905b8082111561370057600081816136f79190613707565b506002016136e1565b5090565b90565b50600081556001016000905556fe496e76616c6964207375626d697373696f6e3a204475706c696361746520736f6c7574696f6e2e4f776e65722063616e6e6f74206170706f696e742068657273656c6620617320616e206f70657261746f722e4e6f7420617574686f72697a656420746f20617070726f7665207472616e73666572732e496e76616c69642070726f6f663a2052656a65637465642062792076657269666965722e4163636573732064656e6965643a204e6f742074686520636f6e7472616374206f776e65722e4e6f742074686520746f6b656e206f776e65723a20506c656173652070726f766964652074686520636f727265637420616464726573732ea165627a7a72305820cf0b325030dcfde1004d712e29682dfb58ca4725374a4184edb49d2ac4d4d222002968747470733a2f2f73332d75732d776573742d322e616d617a6f6e6177732e636f6d2f756461636974792d626c6f636b636861696e2f63617073746f6e652f",
  "source": "pragma solidity >=0.4.21 <0.6.0;\n\nimport './ERC721Mintable.sol';\n\n// define another contract named SolnSquareVerifier that inherits from your ERC721Mintable class\ncontract SolnSquareVerifier is Capstones {\n\n    // Create an event to emit when a solution is added\n    event SolutionAdded(bytes32 solutionKey, address submittedBy);\n\n    // TODO define a solution struct that can hold an index & an address\n    struct Solution {\n        uint[2] a;\n        uint[2][2] b;\n        uint[2] c;\n        uint[2] input;\n        bytes32 solutionKey; // keccak256(abi.encodePacked(a,b,c,input))\n        address submittedBy;\n    }\n\n    // define an array of the above struct\n    Solution[] private solutions;\n\n    // define a mapping to store unique solutions submitted\n    mapping(bytes32 => bool) private submitted;\n\n    Verifier squareVerifier;\n\n    constructor\n                (\n                    address verifierContract\n                )\n                public\n    {\n        squareVerifier = Verifier(verifierContract);\n    }\n\n    // TODO Create a function to add the solutions to the array and emit the event\n    function _addSolution\n                        (\n                            uint[2] memory a,\n                            uint[2][2] memory b,\n                            uint[2] memory c,\n                            uint[2] memory input\n                        )\n                        internal\n    {\n        Solution memory solution;\n        solution.a = a;\n        solution.b = b;\n        solution.c = c;\n        solution.input = input;\n        \n        bytes32 solutionKey = _getSolutionKey(a, b, c, input);\n        solution.solutionKey = solutionKey;\n        solution.submittedBy = msg.sender;\n\n        submitted[solutionKey] = true;\n        solutions.push(solution);\n        emit SolutionAdded(solutionKey, msg.sender);\n    }\n\n    function _getSolutionKey\n                            (\n                                uint[2] memory a,\n                                uint[2][2] memory b,\n                                uint[2] memory c,\n                                uint[2] memory input\n                            )\n                            internal\n                            pure\n                            returns(bytes32 solutionKey)\n    {\n        solutionKey = keccak256(abi.encodePacked(a, b, c, input));\n    }\n\n    function getLengthOfSolutionsArray () public view returns(uint256) {\n        return solutions.length;\n    }\n\n    // TODO Create a function to mint new NFT only after the solution has been verified\n    //  - make sure the solution is unique (has not been used before)\n    //  - make sure you handle metadata as well as tokenSupply\n    function mintCapstone\n                        (\n                            uint256 tokenId,\n                            uint[2] memory a,\n                            uint[2][2] memory b,\n                            uint[2] memory c,\n                            uint[2] memory input\n                        )\n                        public\n    {\n        bytes32 solutionKey = _getSolutionKey(a, b, c, input);\n        require(!submitted[solutionKey], \"Invalid submission: Duplicate solution.\");\n        bool correct = squareVerifier.verifyTx(a, b, c, input);\n        require(correct, \"Invalid proof: Rejected by verifier.\");\n        _addSolution(a, b, c, input);\n        mint(msg.sender, tokenId);\n    }\n\n}\n\n// define a contract call to the zokrates generated solidity contract <Verifier> or <renamedVerifier>\ninterface Verifier {\n\n    function verifyTx\n                    (\n                        uint[2] calldata a,\n                        uint[2][2] calldata b,\n                        uint[2] calldata c,\n                        uint[2] calldata input\n                    )\n                    external\n                    returns (bool r);\n\n}\n",
  "sourcePath": "/Users/mauricemauser/Development/udacity/Blockchain-Capstone-master/eth-contracts/contracts/SolnSquareVerifier.sol",
  "compiler": {
    "name": "solc",
    "version": "0.5.8+commit.23d335f2.Emscripten.clang"
  },
  "schemaVersion": "3.0.15",
  "updatedAt": "2019-09-12T15:16:39.867Z",
  "devdoc": {
    "methods": {
      "isApprovedForAll(address,address)": {
        "details": "Tells whether an operator is approved by a given token owner",
        "params": {
          "operator": "operator address which you want to query the approval of",
          "owner": "owner address which you want to query the approval of"
        },
        "return": "bool whether the given operator is approved by the given owner"
      },
      "setApprovalForAll(address,bool)": {
        "details": "Sets or unsets the approval of a given operator An operator is allowed to transfer all tokens of the sender on their behalf",
        "params": {
          "approved": "representing the status of the approval to be set",
          "to": "operator address to set the approval"
        }
      },
      "supportsInterface(bytes4)": {
        "details": "implement supportsInterface(bytes4) using a lookup table"
      },
      "tokenByIndex(uint256)": {
        "details": "Gets the token ID at a given index of all the tokens in this contract Reverts if the index is greater or equal to the total number of tokens",
        "params": {
          "index": "uint256 representing the index to be accessed of the tokens list"
        },
        "return": "uint256 token ID at the given index of the tokens list"
      },
      "tokenOfOwnerByIndex(address,uint256)": {
        "details": "Gets the token ID at a given index of the tokens list of the requested owner",
        "params": {
          "index": "uint256 representing the index to be accessed of the requested tokens list",
          "owner": "address owning the tokens list to be accessed"
        },
        "return": "uint256 token ID at the given index of the tokens list owned by the requested address"
      },
      "totalSupply()": {
        "details": "Gets the total amount of tokens stored by the contract",
        "return": "uint256 representing the total amount of tokens"
      }
    }
  },
  "userdoc": {
    "methods": {}
  }
}